:030000000229F6DC
:0C29F600787FE4F6D8FD758107022A3DC9
:10310B00759852758780438920758BF1758DF1D237
:02311B008E2202
:102BFF006E6563006C6162003530353630006B6690
:102C0F00006C6F67696300737263006E73650072A7
:102C1F006335007263355F7800000000000000002C
:102C2F000000000000000000000000000000000095
:102C3F000000000000000000000000000000000085
:102C4F000000000000000000000000000000000075
:092C5F000000000000000000006C
:10108F00413BED00413BEE00413957005B3D94FF82
:10109F002BFFFF2C03FF2C07FF2C0DFF2C10FF2C19
:1010AF0016FF2C1AFF2C1EFF2C2260223C7C000204
:1010BF000202020202020202020202020202020201
:1010CF0002020202020202020202020202020206ED
:1010DF00423BEF0306603B38BF00091898002328F6
:1010EF00919401F4070000000000000202308230EA
:1010FF0000C80202308690012C03232888CA01F40D
:10110F00040230CE2003E80501F4BA9803E8013C4D
:10111F007C013BEF4C3D160001020202020202026B
:10112F00020206603B385201018C980001189C8422
:10113F00008C010118980605DC02011892AC01F42D
:10114F000201189C8401F407000000000000070052
:10115F0000000000000501F4BA9803E8013D1600F5
:10116F000000543B3100020202020202020201029D
:10117F00020202020202020106603B3C190209044C
:10118F00980020D0906801F4010208906801F402E1
:10119F000208841A01F4020208883401F4070000DF
:1011AF0000000000070000000000000501F4BA98DD
:1011BF0003E8013B310000006032388D000202026B
:1011CF0002020202020202020202020202020202F0
:1011DF0002020202020202020202020202020202E0
:1011EF000202020202020202020202020206603B35
:1011FF0039F60302BE20000E38870801F4070000FD
:10120F000000000002017C817C009602017C854673
:10121F00012C070000000000000700000000000084
:10122F000501F4CE2003E801388D0000004E3BB7D6
:10123F000002020202020202020202020206603BE6
:10124F003CDB04007D20001388938801F407000025
:10125F00000000000200FA81F400640201F483E848
:10126F0000C8070000000000000700000000000099
:10127F000501F4CE2003E8013BB7000000602B3DD1
:10128F0069000202020202020202020202020202CA
:10129F000202020202020202020201020202020220
:1012AF00020202020202020202020206603B39BB84
:1012BF000509186000177087D00190010E388E381D
:1012CF000190020230823000C80202308460012C8B
:1012DF0007000000000000070000000000000502EA
:1012EF0030CE2003E8013D69000000602B3D3D003A
:1012FF0002020202020202020202020202020202BF
:10130F0002020202020202020002020202020202B0
:10131F0002020202020202020206423CD9030660E6
:10132F003B398006091860000E38870801900700C6
:10133F000000000000020230823000C80202308438
:10134F0060012C030E388E3801F4040230CE2003D6
:10135F00E8050230CE2003E8013D3D013CD94F3B6B
:10136F0080000001020202020202020202020206D1
:10137F00603B3C9E0711C89800833E033E00C801A6
:10138F00833E033E00C802033E833E00C802833EF5
:10139F00033E00C807000000000000070000000027
:1013AF00000005833E3A9803E8013B800000004DA2
:1013BF00394A000202020202020202020202026023
:1013CF003B3B450711C89800833E033E00C801838D
:1013DF003E033E00C802033E833E00C802833E0325
:1013EF003E00C807000000000000070000000000DA
:1013FF000005833E3A9803E801394A00000060284F
:10140F00382A0138BF000000000000000000000073
:10141F0000000000000000000000000000000000BD
:10142F0000000000000000000000602838020138B2
:10143F00520000000000000000000000000000004B
:10144F00000000000000000000000000000000008D
:10145F0000000000000060283BC5013C190000009F
:10146F00000000000000000000000000000000006D
:10147F00000000000000000000000000000000005D
:10148F000000602839580139F60000000000000004
:10149F00000000000000000000000000000000003D
:1014AF0000000000000000000000000000006028A5
:1014BF003C54013CDB000000000000000000000075
:1014CF00000000000000000000000000000000000D
:1014DF0000000000000000000000602839220139E0
:1014EF00BB00000000000000000000000000000032
:1014FF0000000000000000000000000000000000DD
:10150F00000000000000602838FA01398000000058
:10151F0000000000000000000000000000000000BC
:10152F0000000000000000000000000000000000AC
:10153F00000060283BF1013C9E000000000000000D
:10154F00000000000000000000000000000000008C
:10155F0000000000000000000000000000006028F4
:10156F003B8F013B45000000000000000000000021
:10157F00000000000000000000000000000000005C
:10158F00000000000000000000005B3D2201382A2F
:10159F00013802013BC5013958013C540139220180
:0D15AF0038FA013BF1013B8F42380000008B
:0F1EB900903E3AEBF0A3EAF0A3E9F0A31219640C
:101EC80078427C3E7D017BFF7A2C79287E007F104A
:101ED80012169978527C3E7D017BFF7A2C79387EE8
:061EE800007F10121699A4
:101EEE00E4903E62F0A3F0903E3AE0FBA3E0FAA34A
:101EFE00E0F9903E62E0FEA3E0FFF5828E831216BB
:101F0E00D8FD74422FF582743E3EF583EDF0903E7F
:101F1E0063E004F07006903E62E004F0903E62E0F2
:081F2E007004A3E0641070BF11
:101F3600E4903E41F0903E41E0FFE4FCFDFE903E21
:101F46003DE0F8A3E0F9A3E0FAA3E0FBD312189F63
:101F56005003022064E47F01FEFDFC903E41E0FB5D
:101F6600541FF9F81218C3EBC413540725E025E0F3
:101F76002442F582E4343EF583E0F8A3E0F9A3E0D9
:101F8600FAA3E05FFFEA5EFEE95DFDE85C4D4E4FB9
:101F9600700302205B903E3DE0FCA3E0FDA3E0FE63
:101FA600A3E024FFFFEE34FFFEED34FFFDEC34FF2B
:101FB600FCC007A3D007C3EF9BFFEE9400FEED9491
:101FC60000FDEC9400FCE47B20FAF9F812180D9061
:101FD6003E5275F004EF1219A1EE25E025E02583A7
:101FE600F583C083C082E0F8A3E0F9A3E0FAA3E09A
:101FF600FBC000C001C002C003903E3DE0FCA3E070
:10200600FDA3E0FEA3E024FFFFEE34FFFEED34FF68
:10201600FDEC34FFFCC007A3E0FBD007C3EF9BFF3A
:10202600EE9400ED9400EC9400EF541FFFE4A90732
:102036007F01FEFDFCA8011218C3D003D002D00117
:10204600D000EB4FFFEA4EFEE94DFDE84CFCD08296
:0E205600D083121964903E41E004F0021F3B5B
:10206400E4903E62F0A3F0903E62E0FEA3E0FF2421
:1020740052F582743E3EF583E0FD903E3AE0FBA3C8
:10208400E0FAA3E0F98F828E83ED12174A903E6343
:10209400E004F07006903E62E004F0903E62E0706E
:0720A40004A3E0641070C00A
:0120AB002212
:0E1A7000903E3AEBF0A3EAF0A3E9F0A3EDF00C
:101A7E00783E7C3E7D017BFF7A2C79487E007F107C
:101A8E00121699784E7C3E7D017BFF7A2C79587E1A
:101A9E00007F10121699903E3DE024071313135445
:051AAE001F903E5EF0F8
:101AB300E4A3F0A3F0903E3AE0FBA3E0FAA3E0F93D
:101AC300903E5FE0FEA3E0FFF5828E831216D8FD01
:101AD300743E2FF582743E3EF583EDF0903E60E058
:101AE30004F07006903E5FE004F0903E5FE0700407
:061AF300A3E0641070BFC7
:101AF900903E41E0903E4EF0903E40E0903E4FF0E7
:101B0900903E3FE0903E50F0903E3EE0903E51F0D6
:101B1900903E45E0903E52F0903E44E0903E53F0B6
:101B2900903E43E0903E54F0903E42E0903E55F0A6
:101B3900903E49E0903E56F0903E48E0903E57F086
:101B4900903E47E0903E58F0903E46E0903E59F076
:101B5900903E4DE0903E5AF0903E4CE0903E5BF056
:101B6900903E4BE0903E5CF0903E4AE0903E5DF046
:101B7900E4903E5FF0A3F0903E5FE0FEA3E0FF2417
:101B89004EF582743E3EF583E0FD743E2FF5827476
:101B99003E3EF583EDF0903E60E004F07006903E25
:101BA9005FE004F0903E5FE07004A3E0641070C74A
:101BB900E4FF903E5EE0FEEFC39E5025EFFDEEC3CD
:101BC9009DFDE49400FC743D2DF582743E3CF58343
:101BD900E0FE744E2FF582E4343EF583EEF00F807B
:101BE900D1903E51E0903E3EF0903E50E0903E3F15
:101BF900F0903E4FE0903E40F0903E4EE0903E41E6
:101C0900F0903E55E0903E42F0903E54E0903E43C5
:101C1900F0903E53E0903E44F0903E52E0903E45B5
:101C2900F0903E59E0903E46F0903E58E0903E4795
:101C3900F0903E57E0903E48F0903E56E0903E4985
:101C4900F0903E5DE0903E4AF0903E5CE0903E4B65
:101C5900F0903E5BE0903E4CF0903E5AE0903E4D55
:011C6900F08A
:101C6A00E4903E5FF0A3F0903E5FE0FEA3E0FF2425
:101C7A003EF582743E3EF583E0FD903E3AE0FBA3DA
:101C8A00E0FAA3E0F98F828E83ED12174A903E6044
:101C9A00E004F07006903E5FE004F0903E5FE07072
:071CAA0004A3E0641070C008
:011CB1002210
:10005600903E03121964903E00EBF0A3EAF0A3E988
:01006600F0A9
:10006700903E0B12197000000000903E0F7403F0D1
:10007700903E2E1219705A5A55AA1219AD900002C5
:100087001216D8FFE4FCFDFE903E03E0F8A3E0F96A
:10009700A3E0FAA3E0FBC312189F5015903E00E0BF
:1000A700FBA3E0FAA3E0F9900003E412174A021059
:1000B70088903E00E0FBA3E0FAA3E0F9900003126A
:1000C70016D860030202629000041216D860030279
:0200D70001EF37
:1000D9001219AD90000512176CE5F0903E0030E75B
:1000E90010E0FBA3E0FAA3E0F91219AD9000078034
:1000F9000EE0FBA3E0FAA3E0F91219AD9000051296
:10010900176CFBAAF0EA5480FE7F00E4FCFD903EE8
:1001190032121964EA547FFEAF03E4FCFD903E36C7
:10012900121964903E07E0FCA3E0FDA3E0FEA3E002
:10013900FF780F1218C3903E32E0F8A3E0F9A3E06C
:10014900FAA3E06FFFEA6EFEE96DFDE86CFC4D4E27
:100159004F6003021088903E00E0FBA3E0FAA3E0A1
:10016900F91219AD90000912176CAEF0FBAA0690AE
:100179003E36E0FCA3E0FDA3E0FEA3E0C39BFFEE57
:100189009AFEED9400FDEC9400FC903E03E0F8A388
:10019900E0F9A3E0FAA3E0FBD312189F4045903E93
:1001A90000E0FBA3E0FAA3E0F91219AD90000912EF
:1001B900176CFFE4FCFD903E36E0F8A3E0F9A3E0FC
:1001C900FAA3E02FFFEA35F0FEED39FDEC38FC909B
:1001D9003E03E0F8A3E0F9A3E0FAA3E0FBC3121899
:0601E9009F400302108894
:1001EF00903E00E0FBA3E0FAA3E0F9900003740156
:1001FF0012174A903E05E0FFA3E0900006CF8FF064
:10020F001217A49000041216D87045903E00E0FB20
:10021F00A3E0FAA3E0F91219AD90000512176CE5EF
:10022F00F030E7047F0180027F00EF6023903E00F3
:10023F00E0FBA3E0FAA3E0F9900003E412174A9061
:10024F000006E4F5F01217A49000047401121705CC
:10025F00021088903E00E0FBA3E0FAA3E0F99000C3
:10026F000612176CFFE4FCFD903E03E0F8A3E0F9E3
:10027F00A3E0FAA3E02FFFEA35F0FEED39FDEC38ED
:10028F00FC903E0B121964903E00E0FBA3E0FAA332
:10029F00E0F9900006E4F5F01217A4900003E412C1
:1002AF00174A1219AD9000351219CDEA494B700358
:1002BF00020D68903E00E0FBA3E0FAA3E0F91219EB
:1002CF00AD9000351219CDC003C002C001903E00A1
:1002DF00E0FBA3E0FAA3E0F99000041216D8FFD0D8
:1002EF0001D002D003F5827583001216D8FE903E1E
:1002FF0010F0903E00E0FBA3E0FAA3E0F91219AD75
:10030F009000351219CDEFF582758300A31216D820
:10031F00903E11F0EED394024006903E10E004F0B0
:10032F00903E00E0FBA3E0FAA3E0F91219AD903E76
:10033F0010E075F007A429F9EA35F0FA90000712DA
:10034F00176CFFE5F0547FFE90000512176CFDE56A
:10035F00F0547FFCED2FFFEC3EFEE4FCFD903E16CB
:10036F0012196490000912176CFFAEF0E4FCFD90B7
:10037F003E1A12196490000712176CE5F05480FEB4
:10038F007F00E4FCFDC004C005C006C007903E0717
:10039F00E0FCA3E0FDA3E0FEA3E0FF780F1218C37B
:1003AF00D003D002D001D000EF6BFFEE6AFEED69F3
:1003BF00FDEC684D4E4F70047F0180027F00E4FC1E
:1003CF00FDFE903E1E121964903E00E0FBA3E0FA82
:1003DF00A3E0F91219AD1216BF640760030204A55A
:1003EF00903E16E0F8A3E0F9A3E0FAA3E0FBC0000B
:1003FF00C001C002C003903E00E0FBA3E0FAA3E0FF
:10040F00F91219AD903E11E075F007A429F9EA35FC
:10041F00F0FA90000512176CFFE5F0547FFEE4FC34
:10042F00FDD003D002D001D000EB2FFFEA3EFEED4E
:10043F0039FDEC38FC903E16121964903E1AE0F824
:10044F00A3E0F9A3E0FAA3E0FBC000C001C002C023
:10045F0003903E00E0FBA3E0FAA3E0F91219AD9080
:10046F003E11E075F007A429F9EA35F0FA9000057E
:10047F0012176CFFE5F0547FFEE4FCFDD003D002B1
:10048F00D001D000EB2FFFEA3EFEED39FDEC38FC3A
:10049F00903E1A121964903E00E0FBA3E0FAA3E02D
:1004AF00F91219AD9000351219CDC003C002C00169
:1004BF00903E00E0FBA3E0FAA3E0F99000041216CF
:1004CF00D8D001D002D003F5827583001216D864FC
:1004DF00026003020801903E00E0FBA3E0FAA3E0F4
:1004EF00F91219AD90001C12176CFFE5F0547FFE46
:1004FF0090001A12176CFDE5F0547FFCED2FFFEC06
:10050F003EFEE4FCFD903E2212196490001E12176D
:10051F006CFFAEF0E4FCFD903E2612196490001CB7
:10052F0012176CE5F05480FE7F00E4FCFDC004C0A0
:10053F0005C006C007903E07E0FCA3E0FDA3E0FE68
:10054F00A3E0FF780F1218C3D003D002D001D00060
:10055F00EF6BFFEE6AFEED69FDEC684D4E4F7004D8
:10056F007F0180027F00E4FCFDFE903E2A12196499
:10057F00903E00E0FBA3E0FAA3E0F91219AD1216CA
:10058F00BF64076003020631903E22E0F8A3E0F952
:10059F00A3E0FAA3E0FBC000C001C002C003903E7D
:1005AF0000E0FBA3E0FAA3E0F91219AD90001A12D4
:1005BF00176CFFE5F0547FFEE4FCFDD003D002D0B2
:1005CF0001D000EB2FFFEA3EFEED39FDEC38FC9039
:1005DF003E22121964903E26E0F8A3E0F9A3E0FA58
:1005EF00A3E0FBC000C001C002C003903E00E0FBCF
:1005FF00A3E0FAA3E0F91219AD90001A12176CFFDD
:10060F00E5F0547FFEE4FCFDD003D002D001D00012
:10061F00EB2FFFEA3EFEED39FDEC38FC903E261243
:10062F001964903E00E0FBA3E0FAA3E0F91219ADC4
:10063F009000011216D8FFC4540F30E030900035EF
:10064F001219CDC003C002C001903E00E0FBA3E031
:10065F00FAA3E0F99000041216D8F582758300A36F
:10066F00D001D002D0031216D864066074903E1ADF
:10067F00E0F8A3E0F9A3E0FAA3E0FB903E16E0FC5C
:10068F00A3E0FDA3E0FEA3E0C39BFFEE9AFEED996E
:10069F00FDEC98FC903E0BE0F8A3E0F9A3E0FAA381
:1006AF00E0FBD312189F405F903E1AE0FCA3E0FDE1
:1006BF00A3E0FEA3E0FF903E16E0F8A3E0F9A3E06D
:1006CF00FAA3E02FFFEA3EFEE93DFDE83CFC903E39
:1006DF000BE0F8A3E0F9A3E0FAA3E0C312189F50D0
:1006EF0026903E1EE0FCA3E0FDA3E0FEA3E0FFEC9E
:1006FF004D4E4F60047F0180027F00EF6009903EF6
:10070F000F7401F00208B5903E00E0FBA3E0FAA3DE
:10071F00E0F91219AD9000011216D8FFC4540F3032
:10072F00E0309000351219CDC003C002C001903ED9
:10073F0000E0FBA3E0FAA3E0F99000041216D8F54D
:10074F0082758300A3D001D002D0031216D864069D
:10075F006077903E26E0F8A3E0F9A3E0FAA3E0FB70
:10076F00903E22E0FCA3E0FDA3E0FEA3E0C39BFFCD
:10077F00EE9AFEED99FDEC98FC903E0BE0F8A3E0AD
:10078F00F9A3E0FAA3E0FBD312189F50030208AFBE
:10079F00903E26E0FCA3E0FDA3E0FEA3E0FF903E29
:1007AF0022E0F8A3E0F9A3E0FAA3E02FFFEA3EFE70
:1007BF00E93DFDE83CFC903E0BE0F8A3E0F9A3E037
:1007CF00FAA3E0C312189F5026903E2AE0FCA3E044
:1007DF00FDA3E0FEA3E0FFEC4D4E4F60047F0180D0
:1007EF00027F00EF6009903E0F7402F00208B5021D
:1007FF0008AF903E1AE0F8A3E0F9A3E0FAA3E0FBFC
:10080F00903E16E0FCA3E0FDA3E0FEA3E0C39BFF38
:10081F00EE9AFEED99FDEC98FC903E0BE0F8A3E00C
:10082F00F9A3E0FAA3E0FBD312189F4073903E1A8E
:10083F00E0FCA3E0FDA3E0FEA3E0FF903E16E0F88E
:10084F00A3E0F9A3E0FAA3E02FFFEA3EFEE93DFDA6
:10085F00E83CFC903E0BE0F8A3E0F9A3E0FAA3E03C
:10086F00C312189F503A903E00E0FBA3E0FAA3E0BA
:10087F00F91219AD1216BFB40709903E10E0B4017A
:10088F00028014903E1EE0FCA3E0FDA3E0FEA3E077
:10089F00FFEC4D4E4F6007E4903E0FF08008800054
:1008AF00903E0F7403F0903E0FE0FF600C64016008
:1008BF0008EF64026003020C79903E00E0FBA3E0B6
:1008CF00FAA3E0F99000047401121705EF640160B8
:1008DF000B903E0FE064026003020994903E0FE01C
:1008EF0064026003020981E92408F9E43AFAC003BB
:1008FF00C002C001903E00E0FBA3E0FAA3E0F99034
:10090F0000051216D8FFC4135407D001D002D0032C
:10091F0075F004A485F08329F9E5833AFAC003C082
:10092F0002C0011218D6C004C005C006C007903E11
:10093F0000E0FBA3E0FAA3E0F99000051216D854EB
:10094F001FF9E47F01FEFDFCA8011218C3A804A93A
:10095F0005AA06AB07D007D006D005D004EF4BFF92
:10096F00EE4AFEED49FDEC48FCD001D002D0031257
:10097F001926903E00E0FBA3E0FAA3E0F9900005F2
:10098F007401121705903E00E0FBA3E0FAA3E0F913
:10099F001219AD1216BF64076003020A8E903E1142
:1009AF00E075F007A429F9EA35F0FA90000912175B
:1009BF006CAEF0FBAA06903E16E0FCA3E0FDA3E0B0
:1009CF00FEA3E0C39BFFEE9AFEED9400FDEC9400B6
:1009DF00FC903E0BE0F8A3E0F9A3E0FAA3E0FBD311
:1009EF0012189F5003020A8E903E00E0FBA3E0FA1C
:1009FF00A3E0F91219AD903E11E075F007A429F9A3
:100A0F00EA35F0FA90000912176CFFE4FCFD903EF6
:100A1F0016E0F8A3E0F9A3E0FAA3E02FFFEA35F020
:100A2F00FEED39FDEC38FC903E0BE0F8A3E0F9A3A6
:100A3F00E0FAA3E0FBC312189F5044903E00E0FB86
:100A4F00A3E0FAA3E0F9900003740112174A1219F8
:100A5F00AD903E11E075F007A429F9EA35F0FA9050
:100A6F00000512176CFFE5F0547FFE903E00E0FB8F
:100A7F00A3E0FAA3E0F9900006EE8FF01217A4900E
:100A8F003E00E0FBA3E0FAA3E0F91219AD900035A8
:100A9F001219CDC003C002C001903E00E0FBA3E0DD
:100AAF00FAA3E0F99000041216D8D001D002D003B7
:100ABF00F5827583001216D864066003020C7690D7
:100ACF003E12121970FFFFFFFF903E00E0FBA3E004
:100ADF00FAA3E0F91219AD9000011216D830E02FE9
:100AEF00903E00E0FBA3E0FAA3E02408F9E43AFA11
:100AFF00C002C001903E00A3E0FAA3E0F990000508
:100B0F001216D8FFE4FCFDFED001D002121EB990E0
:100B1F003E00E0FBA3E0FAA3E0F91219AD9000014B
:100B2F001216D8FFC31330E02B903E00E0FBA3E07A
:100B3F00FAA3E02408F9E43AFAC002C001903E009B
:100B4F00A3E0FAA3E0F99000051216D8FDD001D06A
:100B5F0002121A70903E00E0FBA3E0FAA3E0F990B6
:100B6F000004E412174A900005E412174A90001887
:090B7F001218F6903E12121964DE
:100B8800E4903E32F0A3F0903E00E0FBA3E0FAA32D
:100B9800E02408F9E43AFA903E32E0FEA3E0FF29A7
:100BA800F9EA3EFA1216BFFD903E00A3E0FAA3E070
:100BB8002418F9E43AFAE92FF9EA3EFAED1217385F
:100BC800903E33E004F07006903E32E004F0903E30
:0A0BD80032E07004A3E0641070AD79
:100BE200E4903E32F0A3F0903E32E0FEA3E0FFC379
:100BF2009410EE64809480502A903E00E0FBA3E0C3
:100C0200FAA3E02408F9E43AFAE92FF9EA3EFAE411
:100C1200121738903E33E004F070CC903E32E0047C
:030C2200F080C49B
:100C2500903E00E0FBA3E0FAA3E0F990001812184B
:100C3500F6903E12E0F8A3E0F9A3E0FAA3E0FBC3C7
:100C450012189F7019903E00E0FBA3E0FAA3E0F9AB
:100C55001219AD9000381219CDE94A4B6005E490A0
:100C65003D68F0903E00E0FBA3E0FAA3E0F9020F37
:100C750001021088903E0FE064036003020D0990A5
:100C85003E00E0FBA3E0FAA3E0F99000041216D8B9
:100C9500FF7E00900004E412174A900005E4121745
:010CA5004A04
:100CA600E4903E32F0A3F0903E32E0FCA3E0FDC3B8
:100CB6009410EC64809480502A903E00E0FBA3E000
:100CC600FAA3E02408F9E43AFAE92DF9EA3CFAE451
:100CD600121738903E33E004F070CC903E32E004B8
:030CE600F080C4D7
:100CE900903E00E0FBA3E0FAA3E0F91219AD9000F1
:100CF900351219CD8F828E831216D8606202108840
:100D0900903E00E0FBA3E0FAA3E0F9900004E412AE
:090D1900174A900005E412174A84
:100D2200E4903E32F0A3F0903E32E0FEA3E0FFC337
:100D32009410EE64809480502A903E00E0FBA3E081
:100D4200FAA3E02408F9E43AFAE92FF9EA3EFAE4D0
:100D5200121738903E33E004F070CC903E32E0043B
:030D6200F080C45A
:100D6500021088903E00E0FBA3E0FAA3E0F9121917
:100D7500AD9000011216D8FF131313541F20E00382
:100D8500020FD09000381219CDEA494B7003020FBB
:010D9500D08D
:100D9600903E00E0FBA3E0FAA3E0F91219AD900043
:100DA600381219CDC003C002C001903E00E0FBA37B
:100DB600E0FAA3E0F99000041216D8D001D002D0D0
:100DC60003F5827583001216D804903E32F0903EE9
:100DD60000E0FBA3E0FAA3E0F91219AD903E32E081
:100DE60075F007A429F9EA35F0FA90000712176C96
:100DF600FFE5F0547FFE90000512176CFDE5F054F8
:100E06007FFCED2FFFEC3EFE90000912176CFDC330
:100E1600EF9DFFEE95F0FEE4FCFD903E0BE0F8A39F
:100E2600E0F9A3E0FAA3E0FBD312189F4064903EDA
:100E360000E0FBA3E0FAA3E0F91219AD903E32E020
:100E460075F007A429F9EA35F0FA90000712176C35
:100E5600FFE5F0547FFE90000512176CFDE5F05497
:100E66007FFCED2FFFEC3EFE90000912176C2FFF62
:100E7600EE35F0FEE4FCFD903E0BE0F8A3E0F9A3AE
:100E8600E0FAA3E0FBC312189F5007E4903E0FF070
:100E96008006903E0F7403F0903E0FE07066903E21
:100EA60000E0FBA3E0FAA3E0F99000047401121736
:100EB600051219AD9000381219CDC003C002C00149
:100EC600903E00E0FBA3E0FAA3E0F99000041216BE
:100ED600D8D001D002D003F5827583001216D8B49B
:100EE600061F903E00E0FBA3E0FAA3E0F9900004A1
:100EF600E412174A900005E412174A9000180218E7
:100F0600F6021088903E0FE06403705F903E00E0AA
:100F1600FBA3E0FAA3E0F9900004E412174A90005C
:050F260005E412174A6A
:100F2B00E4903E33F0A3F0903E33E0FEA3E0FFC32A
:100F3B009410EE64809480502A903E00E0FBA3E076
:100F4B00FAA3E02408F9E43AFAE92FF9EA3EFAE4C5
:100F5B00121738903E34E004F070CC903E33E0042E
:030F6B00F080C44F
:100F6E00021088903E00E0FBA3E0FAA3E0F99000A7
:0C0F7E0004E412174A900005E412174A20
:100F8A00E4903E33F0A3F0903E33E0FEA3E0FFC3CB
:100F9A009410EE64809480502A903E00E0FBA3E017
:100FAA00FAA3E02408F9E43AFAE92FF9EA3EFAE466
:100FBA00121738903E34E004F070CC903E33E004CF
:030FCA00F080C4F0
:030FCD0002108887
:100FD000903E00E0FBA3E0FAA3E0F91219AD900007
:100FE000031216D8FFE4FCFDFE903E0BE0F8A3E0F0
:100FF000F9A3E0FAA3E0FBC312189F501B903E0D2B
:10100000E0FEA3E0FF903E00E0FBA3E0FAA3E0F9DE
:10101000900006EE8FF08011903E00E0FBA3E0FA16
:10102000A3E0F9900006E4F5F01217A4903E00E06A
:10103000FBA3E0FAA3E0F9900004E412174A900041
:0510400005E412174A4F
:10104500E4903E32F0A3F0903E32E0FEA3E0FFC311
:101055009410EE64809480502A903E00E0FBA3E05B
:10106500FAA3E02408F9E43AFAE92FF9EA3EFAE4AA
:10107500121738903E33E004F070CC903E32E00415
:03108500F080C434
:0610880074FFFFFEFDFCF9
:01108E00223F
:06276C00903DF312196418
:10277200903DFC121970FFFFFFFFE4903DFBF090CB
:102782003DFBE0FFC394084003022815EF75F003F8
:10279200A42422F582E4343DF583E0FBA3E0FAA30E
:1027A200E0F9903DF7E0FCA3E0FDA3E0FEA3E0FF2B
:1027B200903E07121964903DF3E0FCA3E0FDA3E014
:1027C200FEA3E0FF120056903DFC12196474FFFF55
:1027D200FEFDFC903DFCE0F8A3E0F9A3E0FAA3E0E3
:1027E200FBC312189F6023E4FFFEFDFC903DFCE05A
:1027F200F8A3A3A3E0C312189F600F903DFCE0FC76
:10280200A3E0FDA3E0FEA3E0FF22903DFBE004F085
:10281200022781903DFBE0B4080674FFFFFEFDFC39
:012822002293
:101CB200E4903DECF0903DF0F0903800F0A3F0900D
:101CC2003800E0FEA3E0FFC39408EE940040030254
:101CD2001EAB903D2275F003EF1219A1EE75F003D1
:101CE200A42583F583E0FBA3E0FAA3E0F9903DEDA0
:101CF200EBF0A3EAF0A3E9F0900003E412174A9094
:0D1D02000004E412174A900005E412174A8D
:101D0F00E4903DF1F0A3F0903DF1E0FEA3E0FFC3BE
:101D1F009410EE64809480502A903DEDE0FBA3E098
:101D2F00FAA3E02408F9E43AFAE92FF9EA3EFAE4D3
:101D3F00121738903DF2E004F070CC903DF1E004C2
:031D4F00F080C45D
:101D5200903801E004F07006903800E004F0021CB4
:101D6200C1903BEEE0FF903BEDE06F7003021EB8C6
:101D720074312FF582E4343AF583E0903DE7F09038
:101D82003DE2E0F8A3E0F9A3E0FAA3E0FB903DE72F
:101D9200E0547F75F010A4FFE4FCFDEB2FFFEA3561
:101DA200F0FEED39FDEC38FC903DE2121964903DF5
:101DB200E7E0FF5480C41313135401903DE6F09002
:101DC2003BEEE004F0E0B4FF02E4F0903BEEE0FE14
:101DD2002431F582E4343AF583E06F20E70C903B3E
:101DE200EDE0FFEE6F6003021D63903DE6E0FFE46D
:101DF200FCFDFE903DF7121964903DE2E0FCA3E089
:101E0200FDA3E0FEA3E0FF12276C903DDE121964F1
:101E120074FFFBFAF9F8C312189F7003021EAB900D
:101E22003DDEE0FCA3E0FDA3E0FEA3E0FF903DE881
:101E3200EFF0903DDEA3A3A3E078081218B0903D26
:101E4200E9EFF0903DDEE0FCA3E0FDA3E0FEA3E0BD
:101E5200FF78101218B0903DEAEFF0903DDEE0FC02
:101E6200A3E0FDA3E0FEA3E0FF78181218B0903DB6
:101E7200EBEFF0903DE8E0FF903DAFE0B5072A9030
:101E82003DE9E0FF903DB0E0B5071E903DEAE0FF7E
:101E9200903DB1E0B50712903DEBE0FF903DB2E01E
:101EA200B507069039577401F0903DE2121970009F
:061EB200000000021D63A8
:011EB8002207
:1028C90090E007E05403903DDBF07003022963E0D8
:1028D90090E007F0903DDBE024FE60030470479030
:1028E900E001E0547F903DDCF0A3F0903DDCE0D3C3
:1028F9009400402990E008E0FF903BEDE0FE04F0F1
:1029090074312EF582E4343AF583EFF0903BEDE033
:10291900B4FF02E4F0903DDCE014F080CE903DDDA0
:10292900E0D3940050B9903DDBE064027092121C30
:10293900B290E001E0547F903DDCF0903DDCE0D3C3
:102949009400400C90E008E0903DDCE014F080EB4E
:0A295900E4903BEDF0A3F00228C962
:012963002251
:102E7B0090C090E054FEF04401F090E000E4F07F4D
:102E8B0005EFF0A3748FF07F16A3EFF0A3740AF095
:102E9B0090E0077403F090E006F090C021E044014D
:082EAB00F0A3E04401F0D2A8FD
:012EB30022FC
:0D000600903957E0B401037F00227FFF22F4
:102CC20012001612003A903E7CE0B401F9E4903E04
:102CD2007CF01230E2903FFFE0903DB3F07B017A4E
:102CE2003E7964903DB3E0FD122E3F903DB77401F2
:102CF200F0A3743EF0A3746FF07B017A3E79641204
:102D020022547B017A3E7964122EED7B017A3E7960
:062D120064122F4F80C780
:10311D00003F71803F71005C3F065B4F666D7D0720
:02312D007F6FB2
:1030CD00AD071FED600EE4FEEE642C70027401601E
:0430DD00EF0E80F47E
:0130E10022CC
:10303400EF1FAA0670011E4A6014E4FCFDED641043
:0E3044007003EC642760E90DBD00010C80EF05
:01305200225B
:10234E0090C056E054FE4401F0E054FD4402F0E02B
:10235E0054FEF090C054E0C31320E02F00000000A4
:10236E00000000000000000000000000000000005F
:10237E00000000000000000000000000000000004F
:10238E00000000000000000000000090C056E05465
:10239E00FDF0000000000000000000000000000042
:1023AE00000000000000000000000000000000001F
:1023BE00000000000000000000000000000000000F
:1023CE000090C054E0C31320E0037F012290C0545C
:1023DE00E020E0037F012290C056E054FE4401F05D
:1023EE0090C055E054FEF000000000000000000018
:1023FE0000000000000000000000000000000000CF
:10240E0000000000000000000000000000000000BE
:10241E00000000000000A3E054FD4402F090C055FF
:07242E00E054FDF07F0022E5
:1024350090C056E054FE4401F0E054FD4402F0E043
:1024450054FE4401F090C055E054FEF00000000039
:102455000000000000000000000000000000000077
:102465000000000000000000000000000000000067
:102475000000000000000000000000A3E054FDF093
:102485000000000000000000000000000000000047
:102495000000000000000000000000000000000037
:1024A5000000000000000000000000000000009097
:1024B500C054E0C31320E0037F012290C056E054CE
:1024C500FEF0000000000000000000000000000019
:1024D50000000000000000000000000000000000F7
:1024E50000000000000000000000000000000000E7
:1024F500000000000000000000000090C054E02033
:08250500E0037F01227F0022A8
:1028230090C056E054FE4401F0E054FD4402F0E051
:1028330054FD4402F090C055E054FDF0EF4E6003A8
:10284300A3800C90C056E054FE4401F090C055E0C4
:1028530054FEF00000000000000000000000000033
:102863000000000000000000000000000000000065
:102873000000000000000000000000000000000055
:10288300000090C056E054FDF0000000000000007E
:102893000000000000000000000000000000000035
:1028A3000000000000000000000000000000000025
:1028B3000000000000000000E054FD4402F090C05E
:0628C30055E054FDF02277
:102B0A0090C056E054FEF0E054FEF00000000000D1
:102B1A0000000000000000000000000000000000AB
:102B2A00000000000000000000000000000000009B
:102B3A0000000000000000000000E054FDF000006A
:102B4A00000000000000000000000000000000007B
:102B5A00000000000000000000000000000000006B
:102B6A000000000000000000000000000090C054B7
:102B7A00E05401FF90C056E054FD4402F090C05565
:042B8A00E054FDF026
:012B8E002224
:022FF300AD0728
:102FF500E4FCED30E7067F017E008003E4FFFE126E
:0E3005002823ED25E0FD0CECB408E7122B0AA1
:01301300229A
:082FA300903DC6EEF0A3EFF033
:102FAB00E4FDFCED25E0FD122B0AED4FFD0CECB41E
:0F2FBB0008F1903DC6E0FEA3E0FF122823AF050A
:012FCA0022E4
:1026B400903DC0EBF0A3EAF0A3E9F0903DBFEFF04A
:1026C400903DC5740AF0EF4401903DBFF0903DC5C4
:1026D400E014F0601812234E903DBFE0FF122FF378
:1026E400EF600A1224357F011230CD80E0903DC5A1
:1026F400E070037FDE22E4903DC5F0903DC4E02409
:10270400FFFF903DC3E034FFFE903DC5E0C39FEE64
:102714006480F87480985026E4FFFE122FA3903D45
:10272400C0E0FBA3E0FAA3E0F9903DC5E0F58275B3
:102734008300EF12174A903DC5E004F080BD7F018D
:102744007E00122FA3903DC0E0FBA3E0FAA3E0F9C2
:10275400903DC4E024FFFD903DC3E034FF8D82F53D
:0727640083EF12174A7F000A
:01276B00224B
:102A8200903DD4EBF0A3EAF0A3E9F0903DD3EFF050
:102A9200903DD9740AF0EF54FE903DD3F0903DD9A9
:102AA200E014F0601812234E903DD3E0FF122FF392
:102AB200EF600A1224357F011230CD80E0903DD9BB
:102AC200E070037FDE22E4903DD9F0903DD9E0FF33
:102AD200D3903DD8E09F7480F8903DD7E064809811
:102AE2004023903DD4E0FBA3E0FAA3E0F9903DD966
:102AF200E0F5827583001216D8FF122FF3903DD9AC
:072B0200E004F080C67F0033
:012B090022A9
:102F7A00903E7DEEF0A3EFF090C056E054FEF0E0F4
:102F8A0054FDF0ED4C6008E054FD4402F0800790D7
:092F9A00C056E054FDF07F002256
:10305300903DBDE0FDA3E0903DC3CDF0A3EDF012A4
:0B30630026B4EF6001221224357F002C
:01306E00223F
:0C2FCB007B01903DD1E4F0A304F07F6C8A
:102FD700903DD1E0FDA3E0903DD7CDF0A3EDF012F9
:0B2FE7002A82EF6001221224357F00D7
:012FF20022BC
:102D180078BC7C3D7D017BFF7A31791D7E007F0484
:102D28001216997B017A3D79BE903DD1E4F0A30457
:102D3800F07F6E122FD77A3D79BE122FCB7B017AA6
:102D48003D79BD903DD1E4F0A304F07F6A122FD7FE
:102D58007B017A3D79BC903DD1E4F0A304F07F6813
:032D6800022FD760
:102D6B0078BC7C3D7D017BFF7A3179217E007F042D
:102D7B001216997B017A3D79BE903DD1E4F0A30404
:102D8B00F07F68122FD77B017A3D79BE903DD1E45D
:102D9B00F0A304F07F6A122FD77A3D79BE122FCBA6
:102DAB007B017A3D79BE903DD1E4F0A304F07F6EB8
:032DBB00022FD70D
:0B25E500903DBCEBF0A3EAF0A3E9F08E
:1025F00078C37C3D7D017BFF7A3179257E007F0A9F
:10260000121699903DBCE0FBA3E0FAA3E0F990001C
:10261000091216D8FF75F00A84AEF0EF75F00A843F
:10262000903DBFF09000081216D8FF75F00A849014
:102630003DC0E5F0F0EF75F00A84A3F0903DBFE0F7
:1026400024C3F582E4343DF583E04480903DC2F03C
:10265000AF0674C32FF9E4343DFA7B01903DD1E419
:10266000F0A304F07F6E122FD7903DBFE024C3F992
:10267000E4343DFA122FCB7B017A3D79C2122FCD83
:10268000903DC0E024C3F9E4343DFA7B01903DD194
:10269000E4F0A304F07F6A122FD7903DC1E024C379
:1026A000F9E4343DFA7B01903DD1E4F0A304F07FDE
:0426B00068022FD7B6
:07313F0090C057740BF02251
:102F2300903DB9EBF0A3EAF0A3E9F0903DB8EFF0E0
:102F33007003022D6B903DB8E0B4020CA3E0FBA339
:0C2F4300E0FAA3E0F90225E5122D1822A7
:103014007B017A3D79B8903DBDE4F0A304F07F4F85
:0F302400123053903DB8E0B455037F00227FFF78
:01303300227A
:01003A0022A3
:102C68007E01E4903DB4F0EF602B90E610740CF018
:102C7800A37490F0A374F9F0A374FFF090E61C74A9
:102C88000CF0A37490F0A374F9F0A374FFF090E62D
:102C980018E04480F0D2AAD2AF90C025E04401F0F9
:102CA800A3E04401FDF0EF6005EE44948003EE4498
:0A2CB8001490E618F07F0102312F9E
:10312F00EF90E6186005E04410F022E054EFF02233
:1020AC00903DBAEBF0A3EAF0A3E9F0903DBAE0FB67
:1020BC00A3E0FAA3E0F990000A1216D8D3943B508F
:1020CC000302225390000AE412174A90000974018B
:1020DC001217059000091216D8D3943B5003022214
:1020EC0053903DBAE0FBA3E0FAA3E0F9900009E4B9
:1020FC0012174A9000087401121705900008121666
:10210C00D8D394175003022253903DBAE0FBA3E0BE
:10211C00FAA3E0F9900008E412174A900007740142
:10212C001217059000061216D8FF6401601EEF64AA
:10213C00036019EF64056014EF6407600FEF640827
:10214C00600AEF640A6005EF640C705D903DBAE0C4
:10215C00FBA3E0FAA3E0F99000071216D8D3941F62
:10216C004047900007740112174A90000674011240
:10217C0017059000061216D8D3940C402C903DBA3B
:10218C00E0FBA3E0FAA3E0F9900006740112174AF1
:10219C009000021218F6EF2401FFE43EFEE43DFD30
:1021AC00E43CFC900002121940903DBAE0FBA3E025
:1021BC00FAA3E0F99000061216D86402704A900057
:1021CC00071216D8D3941D4008122964EF600280C0
:1021DC001C903DBAE0FBA3E0FAA3E0F990000712D3
:1021EC0016D8D3941C4021122964EF701B903DBA71
:1021FC00E0FBA3E0FAA3E0F9900007740112174A80
:10220C009000067401121705903DBAE0FBA3E0FAAA
:10221C00A3E0F99000061216D8FF6404600EEF6478
:10222C00066009EF64096004EFB40B1B9000071201
:10223C0016D8D3941E4010900007740112174A90C0
:08224C000006740112170522BF
:102DBE001216BF90C20BF09000011216D890C20AE4
:102DCE00F09000061216D890C208F0900007121666
:102DDE00D890C207F09000081216D890C206F09054
:102DEE0000091216D890C205F090000A1216D8905B
:042DFE00C204F022F9
:10296400903DBDEBF0A3EAF0A3E9F0903DBDE0FBA0
:10297400A3E0FAA3E0F99000021218F6EF5403FF63
:10298400E4FEFDFCFBFAF9F8C312189F7030903D89
:10299400BDE0FBA3E0FAA3E0F99000021218F6E40C
:1029A4007B64FAF9F812180DAC00AD01AE02AF0366
:1029B400E4FBFAF9F8C312189F60037F0122903DEB
:1029C400BDE0FBA3E0FAA3E0F99000021218F6E4DC
:1029D4007B907A01F9F812180DAC00AD01AE02AF8C
:1029E40003E4FBFAF9F8C312189F70037F01227FF6
:0229F4000022BF
:03001300022EB406
:0F2EB400C0E0C083C082C0D075D000C006C00788
:102EC3007E01C2AF90C024E0FF90E618E04E4408B4
:0D2ED300F0EF30E006903E6EE004F0D2AF6C
:0D2EE000D007D006D0D0D082D083D0E03211
:0C15BC00413E7C00413E7A00413E7B0035
:0631460090C022E4F0221B
:1000160012310B12003E12004612004E12314C9065
:10002600E618E4F090C022E054FEF090E006E4F01A
:04003600FF0230F79E
:1030E20090C020E0F0122E7B12313F7F011230F7A8
:0530F2007F01022C68C3
:0B2E3F00903DB4EBF0A3EAF0A3E9F033
:102E4A00AF05122F23123014903DB7EFF0702174A2
:102E5A00081230B7903DB4E0FBA3E0FAA3E0F91200
:102E6A002DBE12314690C057E4F090C101F080FEA9
:012E7A002235
:0B2EED00903DB4EBF0A3EAF0A3E9F085
:102EF800120006903DB7EFF07020041230B7903DF5
:102F0800B4E0FBA3E0FAA3E0F9122DBE123146901B
:0A2F1800C057E4F090C101F080FE04
:012F2200228C
:10225400903DB4EBF0A3EAF0A3E9F0903DB4E0FBC9
:10226400A3E0FAA3E0F91220AC903DB7E0FBA3E0B1
:10227400FAA3E0F99000071216D8FF903DB4E0FBF2
:10228400A3E0FAA3E0F99000071216D8FE6F6003EA
:1022940002234D903DB7E0FBA3E0FAA3E0F99000E0
:1022A400081216D8FF903DB4E0FBA3E0FAA3E0F9CE
:1022B4009000081216D86F600302234D903DB7E0DA
:1022C400FBA3E0FAA3E0F99000091216D8FF903DB1
:1022D400B4E0FBA3E0FAA3E0F99000091216D86F6A
:1022E4007067903DB7E0FBA3E0FAA3E0F990000625
:1022F4001216D8FF903DB4E0FBA3E0FAA3E0F990F6
:1023040000061216D8FD6F7040EED39400403A9048
:1023140000071216D8C39420502FED9400402AEDE4
:10232400940D5025903E7A7480F01231461230BBE1
:10233400903DB4E0FBA3E0FAA3E0F9122DBE90C0F7
:0A23440057E4F090C101F080FE2282
:102F4F00903E7BE064017022903E7A7408F090E02E
:102F5F0012E04420F0122DBE12314690C057E4F01B
:0B2F6F001230BB90C101E4F080FE2294
:102E020090E0107480F0A3743EF0A3E4F0A3E054C9
:102E1200F0F090E018746AF0A37418F0A3E4F0A341
:102E22007480F090C021E04408F0A3E04408F0D29E
:0C2E320088D2A890E013E04480F0D2AFFA
:012E3E002271
:1030F700EF90E000B40106E04480F08004E0547FE4
:04310700F0022E02A2
:0A30B700903E7AF07B557D4D7F506E
:0C30C10090C200EFF0A3EDF0A3EBF022B2
:03000300022B8F3E
:102B8F00C0E0C0F0C083C082C0D075D000C000C00C
:0D2B9F0001C002C003C004C005C006C0078D
:102BAC00903DDAE4F0C2AF90C020E0903DDAF0E066
:102BBC00FF30E70790E608E04408F0EF30E003123E
:102BCC0028C9903DDAE030E30D90E012E030E506E4
:082BDC00903E7B7401F0D2AFC2
:102BE400D007D006D005D004D003D002D001D00045
:0B2BF400D0D0D082D083D0F0D0E032EF
:03003B0002250D8E
:10250D00C0E0C0F0C083C082C0D075D000C000C094
:10251D0004C005C006C007C2AF90C220740FF09072
:10252D00C233E0903DB2F090C232E0903DB1F090F8
:10253D00C231E0903DB0F090C230E0903DAFF090F0
:10254D00C23EE0903E76F090C23DE0903E77F09036
:10255D00C23CE0903E78F090C23FE0903E75F09026
:10256D00C23BE0903E64F090C23AE0903E65F09040
:10257D00C238E0903E6AF090C237E0903E6BF0902A
:10258D00C236E0903E6CF090C235E0903E6DF0901A
:10259D00C234E0903E6EF0903E64E075F064A4FFAE
:1025AD00A3E07C002FFFEC35F0FEE4FDA3121964CF
:1025BD0090C101E04401F0E04401F0903E7C7401D3
:1025CD00F0D2AFD007D006D005D004D000D0D0D0F7
:0825DD0082D083D0F0D0E0327F
:03004300023089FF
:10308900C0E0C083C082C2AF90C220740FF0D2AF3B
:07309900D082D083D0E032A9
:03004B000230A0E0
:1030A000C0E0C083C082C2AF90C220740FF0D2AF24
:0730B000D082D083D0E03292
:0300530002306F09
:10306F00C0E0C083C082C2AF75910090C220740FC0
:0A307F00F0D2AFD082D083D0E0324F
:05003E00D2E8D2AF2260
:05004600D2E9D2AF2257
:05004E00D2EAD2AF224E
:05314C00D2EBD2AF221E
:102A0200022CC2E493A3F8E493A34003F68001F2FC
:102A120008DFF48029E493A3F85407240CC8C333D5
:102A2200C4540F4420C8834004F456800146F6DFA4
:102A3200E4800B010204081020408090108FE47E95
:102A4200019360BCA3FF543F30E509541FFEE49399
:102A5200A360010ECF54C025E060A840B8E493A360
:102A6200FAE493A3F8E493A3C8C582C8CAC583CA8B
:102A7200F0A3C8C582C8CAC583CADFE9DEE780BE43
:0115C8000022
:1015C900E709F608DFFA8046E709F208DFFA803E04
:1015D90088828C83E709F0A3DFFA8032E309F608F1
:1015E900DFFA8078E309F208DFFA807088828C8359
:1015F900E309F0A3DFFA806489828A83E0A3F6080D
:10160900DFFA805889828A83E0A3F208DFFA804CE6
:1016190080D280FA80C680D4806980F280338010BD
:1016290080A680EA809A80A880DA80E280CA803326
:1016390089828A83ECFAE493A3C8C582C8CCC5839E
:10164900CCF0A3C8C582C8CCC583CCDFE9DEE7806E
:101659000D89828A83E493A3F608DFF9ECFAA9F0ED
:10166900EDFB2289828A83ECFAE0A3C8C582C8CC43
:10167900C583CCF0A3C8C582C8CCC583CCDFEADE5C
:10168900E880DB89828A83E493A3F208DFF980CCBE
:1016990088F0EF60010E4E60C388F0ED2402B404B7
:1016A9000050B9F582EB2402B4040050AF2323455E
:0616B90082239016197354
:1016BF00BB010689828A83E0225002E722BBFE0229
:0916CF00E32289828A83E493225C
:1016D800BB010CE58229F582E5833AF583E02250C7
:1016E80006E92582F8E622BBFE06E92582F8E22211
:0D16F800E58229F582E5833AF583E493222B
:10170500BB010FF8E58229F582E5833AF583E028E8
:10171500F0225009C58229F8E58226F622BBFE098A
:10172500C58229F8E22582F222F8EA2583F583E9C4
:03173500932822D4
:10173800BB010689828A83F0225002F722BBFE0190
:02174800F3228A
:10174A00F8BB010DE58229F582E5833AF583E8F0D5
:10175A00225006E92582C8F622BBFE05E92582C881
:02176A00F22269
:10176C00BB0110E58229F582E5833AF583E0F5F0BB
:10177C00A3E0225009E92582F886F008E622BBFE98
:10178C000AE92582F8E2F5F008E222E5832AF583DE
:08179C00E993F5F0A3E99322A3
:1017A400F8BB0111E58229F582E5833AF583E8F077
:1017B400E5F0A3F0225009E92582C8F608A6F02234
:0D17C400BBFE09E92582C8F2E5F008F2221B
:1017D10075F008758200EF2FFFEE33FECD33CDCCCF
:1017E10033CCC58233C5829BED9AEC99E582984052
:1017F1000CF582EE9BFEED9AFDEC99FC0FD5F0D62F
:10180100E4CEFBE4CDFAE4CCF9A88222B800C1B958
:101811000059BA002DEC8BF084CFCECDFCE5F0CB96
:10182100F97818EF2FFFEE33FEED33FDEC33FCEBCF
:1018310033FB10D703994004EB99FB0FD8E5E4F98A
:10184100FA227818EF2FFFEE33FEED33FDEC33FC77
:10185100C933C910D7059BE99A4007EC9BFCE99A6B
:10186100F90FD8E0E4C9FAE4CCFB2275F010EF2FB0
:10187100FFEE33FEED33FDCC33CCC833C810D707B0
:101881009BEC9AE899400AED9BFDEC9AFCE899F8EB
:0E1891000FD5F0DAE4CDFBE4CCFAE4C8F9227E
:10189F00EB9FF5F0EA9E42F0E99D42F0E89C45F09F
:0118AF002216
:1018B000E8600FECC313FCED13FDEE13FEEF13FF16
:0318C000D8F1223A
:1018C300E8600FEFC333FFEE33FEED33FDEC33FC83
:0318D300D8F12227
:1018D600BB010789828A83021A095005E9F80219B1
:1018E600FDBBFE05E9F8021A1589828A83021A21D0
:1018F600BB010DE58229F582E5833AF583021A09D3
:101906005007E92582F80219FDBBFE07E92582F892
:10191600021A15E58229F582E5833AF583021A2132
:10192600BB010789828A830219645005E9F8021A05
:0A19360031BBFE05E9F8021A3D225C
:10194000BB010DE58229F582E5833AF5830219642E
:101950005007E92582F8021A31BBFE07E92582F813
:04196000021A3D2208
:0C196400ECF0A3EDF0A3EEF0A3EFF022F6
:10197000A8828583F0D083D082121987121987122A
:101980001987121987E473E493A3C583C5F0C5834F
:10199000C8C582C8F0A3C583C5F0C583C8C582C8C1
:0119A0002224
:0C19A100A42582F582E5F03583F5832251
:1019AD00BB010789828A83021A525005E9F8021A8F
:1019BD0049BBFE05E9F8021A5B89828A83021A6423
:1019CD00BB010DE58229F582E5833AF583021A52B2
:1019DD005007E92582F8021A49BBFE07E92582F86E
:1019ED00021A5BE58229F582E5833AF583021A64D2
:0C19FD00E6FC08E6FD08E6FE08E6FF2216
:0C1A0900E0FCA3E0FDA3E0FEA3E0FF2250
:0C1A1500E2FC08E2FD08E2FE08E2FF220D
:101A2100E493FC740193FD740293FE740393FF220B
:0C1A3100ECF608EDF608EEF608EFF622E1
:0C1A3D00ECF208EDF208EEF208EFF222E5
:091A4900E6FB08E6FA08E6F922C2
:091A5200E0FBA3E0FAA3E0F92295
:091A5B00E2FB08E2FA08E2F922BC
:0C1A6400E493FB740193FA740293F922DE
:00000001FF
